:020000040800F2
:10000000680600202902000825040008BB03000838
:10001000BF030008DB02000891090008000000008F
:100020000000000000000000000000008D05000836
:10003000DF0200080000000027040008A5060008F1
:10004000430200084302000843020008430200087C
:10005000430200084302000843020008430200086C
:10006000430200084302000843020008430200085C
:10007000430200084302000843020008430200084C
:10008000430200084302000843020008430200083C
:10009000430200084302000843020008430200082C
:1000A000430200084302000843020008430200081C
:1000B000430200084302000843020008430200080C
:1000C00043020008430200084302000843020008FC
:1000D00043020008430200084302000843020008EC
:1000E00043020008430200084302000843020008DC
:1000F00043020008430200084302000843020008CC
:1001000043020008430200084302000843020008BB
:1001100043020008430200084302000843020008AB
:10012000430200084302000843020008430200089B
:10013000430200084302000843020008430200088B
:10014000430200084302000843020008430200087B
:10015000430200084302000843020008430200086B
:10016000430200084302000843020008430200085B
:10017000430200084302000843020008430200084B
:10018000430200084302000800F002F800F03CF8C7
:100190000AA090E8000C82448344AAF10107DA45E2
:1001A00001D100F031F8AFF2090EBAE80F0013F0F8
:1001B000010F18BFFB1A43F0010318474408000061
:1001C00064080000103A24BF78C878C1FAD85207F2
:1001D00024BF30C830C144BF04680C6070470000C1
:1001E0000023002400250026103A28BF78C1FBD840
:1001F000520728BF30C148BF0B6070471FB500F0E1
:10020000F9FB1FBD10B510BD00F031F81146FFF726
:10021000F5FF00F0E3FB00F04FF803B4FFF7F2FF47
:1002200003BC00F053F80000094880470948004724
:10023000FEE7FEE7FEE7FEE7FEE7FEE7FEE7FEE796
:10024000FEE7FEE704480549054A064B70470000F3
:10025000A90600088901000868000020680600203F
:10026000680200206802002070477047704775469A
:1002700000F028F8AE4605006946534620F0070016
:10028000854618B020B5FFF7DDFFBDE820404FF0F0
:1002900000064FF000074FF000084FF0000B21F070
:1002A0000701AC46ACE8C009ACE8C009ACE8C0093D
:1002B000ACE8C0098D4670470446AFF30080204685
:1002C000FFF7ABFF004870470400002001491820E9
:1002D000ABBEFEE726000200704700BFFEE7704796
:1002E000F0B50A4600210023002400BF3DE00125AF
:1002F00005FA01F3156805EA03049C4234D1056848
:100300004F000326BE40B543056015794E00B54049
:100310000668354305601579012D02D01579022D47
:1003200016D185684F000326BE40B54385605579D8
:100330004E00B540866835438560456801268E408D
:10034000B5434560456896798E40B6B23543456001
:10035000C5684F000326BE40B543C560D5794E0041
:10036000B540C6683543C560491C1029BFD3F0BDF0
:10037000F0B5002300244D07ED0E02FA05F3CE1070
:1003800000F1200555F826504E07F70E0F26BE4007
:10039000B543CF1000F1200646F82750CE1000F1EB
:1003A000200555F8265045EA0304CE1000F120053B
:1003B00045F82640F0BD0183704700BFFEE700BF4F
:1003C000FEE7000070B5054600240FE02146134803
:1003D00000F096FA2146124800F094FA214610489F
:1003E00000F092FA642000F0D5FA2C44B4F5C87FEE
:1003F000ECDD0FE02146094800F082FA214608486A
:1004000000F080FA2146064800F07EFA642000F0F1
:10041000C1FA641B002CEDD170BD0000002000402B
:10042000000001407047704730B58BB005460C4660
:100430000121080200F08AF80121084600F096F830
:100440000121202000F072F80121102000F06EF848
:10045000092211463148FFF78BFF01220D21304858
:10046000FFF786FF01220E212D48FFF781FF0220B2
:100470008DF828000002099003208DF82900002043
:100480008DF82A0001208DF82B0009A92348FFF7D9
:1004900027FF4FF4C040099009A92148FFF720FF2A
:1004A0000795ADF818400020ADF82000ADF81A000F
:1004B00006A91C4800F02AFA06A91B4800F026FAF3
:1004C0006020ADF804000220ADF810000120ADF866
:1004D000060001A9134800F049F901A9124800F0EB
:1004E00083F901A9104800F0CFF901210D4800F06F
:1004F00021F901210C4800F01DF901210A4800F002
:1005000025F94FF400710548FFF755FF4FF4C0413E
:100510000348FFF750FF0BB030BD0000001402404D
:1005200000100240002000400000014029B1064AAE
:1005300012680243044B1A6004E0034A12688243C3
:10054000014B1A60704700003038024029B1064A5A
:1005500012680243044B1A6004E0034A12688243A3
:10056000014B1A60704700004038024029B1064A2A
:1005700012680243044B1A6004E0034A1268824383
:10058000014B1A6070470000443802407047000079
:100590000CB50020019000903448006840F4803091
:1005A0003249086000BF3148006800F40030009014
:1005B0000198401C0190009818B90198B0F5A04F1F
:1005C000F1D12A48006800F4003010B101200090F9
:1005D00001E0002000900098012846D123484030D7
:1005E000006840F080502149403108602048006890
:1005F00040F440401E4908601C48083000681B4910
:10060000083108600846006840F400400860084669
:10061000006840F4A05008601648091F0860081FD1
:10062000006840F08070091F086000BF0F48006834
:1006300000F000700028F9D040F205700E49086003
:100640000A480830006820F00300084908310860B3
:100650000846006840F00200086000BF0348083008
:10066000006800F00C000828F8D10CBD00380240EA
:100670000070004008544007003C0240042808D1A4
:100680004FF0E021096941F004014FF0E0221161CF
:1006900007E04FF0E021096921F004014FF0E0226A
:1006A000116170477047000010B51548006840F4AC
:1006B0007000134908601348006840F001001149B8
:1006C000086000200F49083108600E4800680E4994
:1006D00008400C4908600D48091D0860081F0068A3
:1006E00020F48020091F0860002006490C310860B2
:1006F000FFF74EFF4FF0006001498039086010BDE0
:1007000088ED00E000380240FFFFF6FE10300024C4
:1007100010B56FF00400FFF7B1FF15200349087012
:1007200045F208200249088010BD000000000020AA
:100730000200002021B1028842F00102028004E0A0
:1007400002884FF6FE731A400280704731B1B0F84C
:10075000442042F40042A0F8442005E0B0F84420D0
:10076000C2F30E02A0F844207047000070B50024C8
:1007700000220023058C4FF6FE7635400584028C5E
:100780008388048B4FF68F752C40B51E2C400D8846
:100790002C43751E2A408D892A434D882A43104DCB
:1007A000A84202D00F4DA84213D14FF6F7752A4048
:1007B000CD892A434FF6FB752A408D882A434FF690
:1007C000FF652B404FF6FF552B400D8A2B434D8A7A
:1007D0002B43838004838D684563028470BD0000D1
:1007E000000001400004014070B5002400220023F5
:1007F000058C4FF6FF6635400584028C8388848B18
:100800004FF68F752C404FF6FC752C400D882C430D
:100810004FF6FF552A408D894FF6FF7606EA0525EB
:100820002A434D8806EA05252A43154DA84202D0E1
:10083000144DA8421DD14FF2FF752A40CD894FF6C5
:10084000FF7606EA05252A434FF6FF352A408D88B4
:1008500006EA05252A434EF6FF752B404DF6FF7537
:100860002B400D8A06EA05152B434D8A06EA05152D
:100870002B43838084838D68C563028470BD000030
:10088000000001400004014070B500220023002454
:10089000058C4EF6FF7635400584038C8488828B68
:1008A00048F6FF752A404FF6FF452A400D884FF65F
:1008B000FF7606EA05252A434DF6FF752B408D8904
:1008C00006EA05352B434D8806EA05352B430A4DCC
:1008D000A84202D0094DA84208D14BF6FF752C4022
:1008E0000D8A4FF6FF7606EA85152C4384808283B5
:1008F0008D680564038470BD000001400004014060
:1009000041637047C16370470164704700220288E9
:10091000184B98420ED0184B98420BD0B0F1804F34
:1009200008D0164B984205D0154B984202D0154B73
:10093000984204D14FF68F731A404B881A43124BDA
:10094000984207D0114B984204D04FF6FF431A400B
:100950000B891A4302804B68C3620B880385054BE1
:10096000984202D0044B984201D18B7A038601232E
:1009700083827047000001400004014000040040F1
:1009800000080040000C004000100040001400402F
:1009900000BFFEE70021104A128842434FF0E023D7
:1009A0005A6100229A611A46126942F001021A61E4
:1009B00000BF4FF0E022116901F48032002AF8D024
:1009C0004FF0E022126922F001024FF0E0231A6199
:1009D00000229A617047000002000020FFF798FE95
:1009E000532140F2F310FFF71FFD02E02820FFF72C
:1009F000E9FCFBE74FF04070E1EE100A70470000A1
:100A0000200A00080000002004000000C4010008C3
:100A1000240A00080400002064060000E001000829
:040A200000000000D2
:040000050800018965
:00000001FF
